:020000040800F2
:1000000008090020758E0008418D0008438D000806
:10001000458D0008478D0008498D0008000000004C
:100020000000000000000000000000004B8D0008F0
:100030004D8D0008000000004F8D0008518D000814
:10004000918E0008918E0008918E0008918E000814
:10005000918E0008918E0008918E0008918E000804
:10006000918E0008918E0008918E0008918E0008F4
:10007000918E0008918E0008918E0008918E0008E4
:10008000918E0008918E0008918E0008918E0008D4
:10009000538D0008918E0008918E000859220008A7
:1000A000918E0008918E0008918E0008918E0008B4
:1000B000918E00085F8D0008818D0008918E0008E8
:1000C000918E0008918E0008918E0008918E000894
:1000D000918E0008918E0008918E0008918E000884
:1000E000A7510008918E0008578D000810B50B4CE1
:1000F00000224421204600F037FF04F12801A079B6
:1001000001F01BF8002804D10720BDE8104001F0E1
:10011000E3B910BD0249034802F06DBA281D002062
:10012000041E0020441D00202DE9F14F90B0DFF89F
:10013000C04A00224021204600F016FFDFF8B48AB2
:100140000B224146601C02F0B7FA002528468DF8C4
:100150000800834600900C9006468246109800786E
:10016000242805D14FF0010A504660702846A0703F
:100170005046C00703D503208DF8140009E0284637
:100180008DF8140005E00C980121B940084380B2B5
:100190000C9010989DF81410475C380000F0B08166
:1001A000A7F141001A2802D3012000F0C5BE08467D
:1001B000401C8DF8140006AA05A9109802F0B8FAA0
:1001C000002802D1022000F0B7BE069802F0EAFB38
:1001D000CDE9080102F00DFC02F014FC81465FFA43
:1001E00089F9484602F044FC0146069802F050FCAA
:1001F000DFF8041A02F0C0FC02F0D4FB02F028FD84
:1002000002F000FC80B23946472903D04D2900F0A6
:100210009C80E1E04946032942D9091F2AD0891F61
:1002200023D0C91F022956D9C91E012968D9083906
:100230001BD0891E19D0083932D0891E65D0C91E3D
:1002400065D0891F63D0091F14D0491E052972D9B2
:10025000C91F73D0133926D00A3901293ED9891E06
:1002600003D0491E012946D91BE2002802D1002DE6
:1002700050D10125002784F80090B9F11C0F05D05A
:10028000B9F11E0F02D0B9F15C0F5BD1002802D08A
:100290000A2840F00682494640182070384651E04E
:1002A000002D37D10225012784F80190B9F1260FDE
:1002B00048D1142806D01E2804D0282802D032287D
:1002C00040F0EF8149460A2290FBF2F0643040187A
:1002D0006070002036E00227617133E0002802D10F
:1002E000032721712EE004270A2840F0DA81B9F1B2
:1002F0005A0F1ED1D5E10527C9F15E01A17021E099
:100300000627C9F11501E1701CE007271AE008274C
:10031000002D02D0182000F00FBE0325B9F1310FD7
:1003200002D10020A07104E00A2840F0BA81012027
:10033000A071002006E00927E17103E00A270028E8
:1003400040F0AF81002802D13EE0002802D0172003
:1003500000F0F2BD4846022808D9C01E022813D971
:10036000401F012823D9163840F09B810B27B9F193
:10037000000F03D0B9F1010F26D002E00320207254
:1003800022E084F808901FE00C27B9F1030F05D094
:100390001AD3B9F1050F07D003D315E01020A072CE
:1003A00012E02020A0720FE00020A0720CE00D27C8
:1003B000B9F1080F03D0B9F1090F03D004E04020D0
:1003C000607201E0002060720C983841C0077FF530
:1003D000DAAE152000F0B0BD462F18D0492F1AD044
:1003E0004A2F21D04B2F28D04C2F2FD04E2F31D039
:1003F000502F38D0522F3AD0532F3CD0542F3ED0CC
:10040000582F49D0592F4FD05A2F57D049E10027A4
:100410000698E0605BE0012706982061009840F0B4
:100420000100C0B2009052E0022706986061009877
:1004300040F00200C0B2009049E003270698A06196
:10044000009840F00400C0B2009040E0042784F817
:100450001C903CE00527DDE9080102F0CAFA02F031
:10046000D1FA206233E00627069860622FE0072762
:100470000698A0622BE008270698E06227E009278B
:100480000698DFF8BC1A02F005FC02D8262000F01E
:1004900053BD84F830901AE00A27069804F1300121
:1004A00048604BF0010B12E00B27069804F1300175
:1004B00088604BF0020B5FFA8BFB08E00C27069874
:1004C00004F13001C8604BF0040B5FFA8BFB30463F
:1004D0003841C00702D5192000F02EBD40F261302E
:1004E0003841C00707D50698002102F0E5FB02D28B
:1004F000042000F021BD0120B8400643B6B248E612
:10050000BBF1000F02D0002D00D10225304680063D
:1005100007D5206ADFF82C1A884202DB1B2000F086
:100520000BBD5046C00703D53046C00715D4B1E116
:10053000A07801280AD1022D22D1607850281FD03E
:1005400000281DD03046C0071AD4A3E198F8010056
:10055000002815D13046C0070FD5E07801280FD10B
:10056000E06802F01FFA4FF06632DFF8DC3902F083
:10057000B5FB02F085FCE06002E0D8F81000E06016
:10058000F00502D4D8F80C00E0622078042805D1E8
:10059000304640066AD54FF6BF70064060790028A5
:1005A00002D0012808D00FE000200B9001200A9013
:1005B00002208DF815000EE002200B9000200A901A
:1005C00001208DF8150006E001200B9002200A9012
:1005D00000208DF81500E078012818D1002714E0DC
:1005E00058463841C0070FD504EB8709D9F83400C5
:1005F00002F0D8F94FF06632DFF84C3902F06EFBAA
:1006000002F03EFCC9F834007F1C032FE8DB032D09
:1006100008D1A079012805D19BF0040F02D0252034
:1006200000F08ABC0C2208F128010DA802F054F851
:100630000C9880050DD5E079072827DA98F8061080
:100640000246914205D00DA900F077FD002800F088
:10065000628420780A2802D05C2864D08DE0BBF147
:10066000000F00F0668216F0500002D11C2000F04E
:1006700063BC606A02F096F902F0BBF902F0C2F9BD
:100680008DF808009DF80800072802DB1D2000F007
:1006900053BC207F142807D0022802D13046000620
:1006A00002D5142000F048BC4FF6AF7006409DF80C
:1006B0000800002803D0401E8DF8080002E0E07911
:1006C0008DF8080004F110019DF8080000F035FDD8
:1006D000002800F02084002704E0D9F83400C9F88D
:1006E00010007F1C032F80F2B08058463841C007AD
:1006F000F7D504EB8709207F1428EED108EB87019A
:10070000C869496B02F0C4F9D9F8341002F0C0F995
:10071000C9F81000022FE4D1D8F8401002F0B8F95F
:10072000C9F81000DDE7BBF1000F00F002820027DE
:1007300003E0406BC9F834007F1C032F80F28580F2
:1007400004EB870908EB870059463941C907F0D502
:100750000DA9C06951F8271002F09AF9D9F83410A0
:1007600002F096F9C9F83400022FE5D1D8F840100C
:1007700002F08EF9C9F83400DEE7032D39D0BBF161
:10078000000F36D0002707E0D9F83400D16902F015
:10079000BFFBC9F834007F1C032F2ADA58463841C2
:1007A000C00706D408EB8700C06904EB87014863E3
:1007B000F1E720783528EED004EB870908EB8702B3
:1007C00020790028E0D10DA951F82700516B02F0E3
:1007D0009FFBD9F8341002F09BFB0146C9F8341096
:1007E000022FD8D1D8F8400002F092FBC9F83400AB
:1007F000D1E7207801461C2904D01E2902D03529D2
:100800002CD022E01C2804F1100105D1062000F0B4
:1008100094FC002806D17EE3072000F08EFC00281F
:1008200000F07983BBF1000F0ED00027032F0CDA04
:1008300058463841C00705D408EB8700C06904EB6F
:10084000870108617F1CF1E7002562781346502B71
:100850000BD1BBF1000F10D01F206DE360780100B9
:10086000F3D00128F1D01E2066E3022D05D110003F
:100870000BD1BBF1000F00D100255046C00740F15D
:1008800066814FF6DE70064064E1E068002102F008
:1008900081FB01D116204FE3012A10D0022A13D088
:1008A000032A13D08C2A00F03B818D2A00F0368178
:1008B0008E2A00F035818F2A00F03081DDE7BBF110
:1008C000000FDAD10D46D8E74AF0040ABBF1000F59
:1008D00000F02F8101200B9900FA01F10A9A904053
:1008E00040EA01071BEA070F01D1202024E30B98FF
:1008F00004EB80000890406B0B9908EB8101C969FB
:1009000002F0C6F804900A9804EB80000790406B50
:100910000A9908EB8101C96902F0BAF803903046E0
:10092000000640F194804FF67F7006400C2204F1DF
:10093000340108F11C0002F03BFB002800F00581A7
:10094000E07801280BD1A06A02F02CF84FF0663253
:10095000DFF8F43502F0C2F902F092FAA062A76A59
:10096000384602F01FF80022DFF8E03502F0B6F951
:10097000CDE90001384602F015F8DDE9002302F068
:10098000ADF9CDE900010499084602F0F5F802F04E
:1009900009F802460B46DDE9000102F03BFBCDE918
:1009A00000010399084602F0E7F801F0FBFF024658
:1009B0000B46DDE9000102F02DFB02F061FA002197
:1009C00002F07AF901D22220B6E201F0EBFF02F048
:1009D000E1FBCDE900010399049801F054FF01F017
:1009E000E1FF02460B46DDE9000102F04BFC81F01D
:1009F000004102F045FA07466078032801D187F0EC
:100A00000047A06A002102F057F904D287F000479E
:100A100080F00040A0624FF07C590398394602F004
:100A2000ABF80146049802F033F8494602F0A4F806
:100A3000089908610498394602F09EF8039902F07B
:100A400067FA494602F098F80799086115E7009897
:100A5000384201D123206FE24FF6F1700640E07872
:100A6000012818D1002714E000983841C0070FD59D
:100A700004EB8709D9F8100001F094FF4FF06632BB
:100A8000DFF8C43402F02AF902F0FAF9C9F81000CC
:100A90007F1C032FE8DB03980799096901F0F8FF31
:100AA00001460F4604980899096901F0F1FF39469B
:100AB00001F0E9FE8146079801690898006901F094
:100AC000E2FE0746A7624846394601F0E1FF01F021
:100AD00069FF21F0004102F0D3F9DFF8741402F04D
:100AE000D9F83FF6CAAEDFF86C1402F0D3F82CD96F
:100AF00001F058FF02460B46CDE90023384601F0CD
:100B000051FFDFF85424DFF8543402F0E7F8DDE950
:100B1000002302F0E3FCBFF4B0AE16E04AF0100A86
:100B20008E2B01D08F2B01D14AF0080ABBF1000FA8
:100B300001D11A2000E20C2204F1340108F11C005A
:100B400002F036FA00287FF498AE2120F4E14FF647
:100B5000DE400640002D02D04EF2FF300640002E4F
:100B600001D02420E8E100220C2107A800F0FCF9C4
:100B70005046C00724D50C986FF04901084204D1B3
:100B80002078352803D0002801D01020D4E1D8F8EF
:100B90000C00089098F8090098F8081008438DF8A0
:100BA0002400214607A802F0B1FC050006D10C2262
:100BB00004F1340108F11C0001F08EFD2846BBE170
:100BC000DFF89C0390F8480080072ED56078012854
:100BD00005D0022803D0032801D04AF0400ABBF117
:100BE000000F0BD0022D09D14AF0800A1DE000BF92
:100BF0006C1D0020281D00200000C84298F8090044
:100C0000102812D198F80000012803D0022801D042
:100C1000032805D15046400607D54AF0200A04E0D3
:100C20005046400601D44AF0200A206AC8F818004D
:100C3000A07888F80100002805D09DF8240040F035
:100C400008008DF82400E068C8F810000790D8F874
:100C50000C00E16A02F09EF902D15046800608D5E8
:100C600098F80900010001D002F0BFFCE06AC8F862
:100C70000C005046400602D4D8F80C00089004F14D
:100C80003006307888F81400A07A98F809100246E7
:100C9000914204D002F0A9FCA07A88F809009DF8DE
:100CA000240098F8091008438DF82400607A98F819
:100CB0000810024691420DD002F0D2FC607A010089
:100CC00003D1002088F8080004E098F808100843D1
:100CD00088F808009DF8240098F8081008438DF85B
:100CE00024002078042802D1606A02F0A1FE607915
:100CF00088F80400E07888F80200032D11D1A0796B
:100D000088F80500002801D10020F060F268D8F8CA
:100D10004000114602F03EF903D0C8F8402001F02F
:100D200056FCE07998F806100246914209D088F8FE
:100D300006000C220DA908F1280001F0CDFC01F0FD
:100D400046FC207988F8030020780A280CD01C285B
:100D500020D01E281ED0262836D028283AD05C283D
:100D60003ED0662846D04DE004F110019DF8080001
:100D700000F02DF998F806009DF80810884241D13E
:100D80000C2204F1100108F1280001F0A5FC01F08B
:100D90001EFC37E09DF8240040F001008DF824008F
:100DA000002D04D007A904F1340002F06DFC07A95E
:100DB00004F1100002F068FC0C2204F1100108F1AB
:100DC0001C0001F089FC1DE008F11C01062000F068
:100DD000FEF817E008F11C01072000F0F8F811E018
:100DE0000C2204F1340108F1340001F075FC01F02B
:100DF000EEFB07E000220C2108F1340000F0B4F80B
:100E000001F0E5FB607888F800000146502951D0D8
:100E1000022D4FD10025012905D107A904F1340085
:100E200002F032FC38E000280BD19DF8240040F09D
:100E300001008DF8240007A904F1340002F024FC1D
:100E40002AE0022901D0032919D14FEA9A0000F0C3
:100E5000010004909DF8150003900A98C0B202901A
:100E60000B98C0B20190A06A009004F1100308F141
:100E70001C0207A904F1340002F039FC0CE09DF8D3
:100E8000240040F004008DF82400524607A904F124
:100E9000340002F0F4FD0546280007D10C2204F1CD
:100EA000340108F11C0001F017FC03E0012D01D111
:100EB000FFF730F9207A88F8070000283BD002F0CD
:100EC000B7FF284898F80710032908D100780228AE
:100ED0002ED0082001F0B9FB02F0C7FF28E0012165
:100EE00088F80010002188F8041088F8031088F8AA
:100EF000011088F80610A8F808106421C171017269
:100F000041720078022810D008F12801002000F07A
:100F100014F9002801D107200EE001F058FB002051
:100F200002F043FB002002F087FB082000F098FB52
:100F3000002088F80700002011B0BDE8F08F000005
:100F400001007F438196980066663940000010409A
:100F50000BD7A33B0100003FFCA9F1D24D62503FEB
:100F60007C1C0020EC1D002062F30F2262F31F4264
:100F700000B500BF130096469446103928BFA0E87C
:100F80000C50FAD85FEA417C28BF0CC048BF40F83B
:100F9000042BC90728BF20F8022B48BF00F8012BFB
:100FA00000BD000038B504460D4602F041FF502256
:100FB00029465120604300F54070BDE8384003F0F9
:100FC000D5B95022014640F2AE3003F0CFB938B562
:100FD00004460D4602F02CFF0C2229460D206043EA
:100FE00000F50070BDE8384003F0C0B980B50A21B3
:100FF000002003F0B9F95C22DFF8C4130120BDE83A
:10100000084003F0B3B93EB50446E00739D5DFF830
:10101000B00300F130010A220A701922CA700022BE
:101020004A708A7001220A71DFF898238A60DFF81B
:101030009823CA60DFF894230A6100224A614A7645
:10104000DFF88C23CA61DFF88C230A62FA238B84D1
:101050004FF07E538B6200230B76DFF87C13016028
:1010600041608160C26002614261DFF8701381619A
:10107000C1610162DFF8681341628162C162FFF7FA
:10108000B5FFA0070DD500220C216846FFF76CFFC5
:10109000002504E069462846FFF799FF6D1C082DDE
:1010A000F8DB600713D500214FF4407003F05CF9C2
:1010B000002140F2013003F057F9002140F2513095
:1010C00003F052F9002140F2523003F04DF92007AD
:1010D00009D5002140F2AE3003F046F9002140F27C
:1010E000AF3003F041F937BD38B504460D46502204
:1010F0005120604300F54071284603F056F900285E
:1011000007D10020287029462046FFF74BFF00201A
:1011100032BD012032BD10B50446502240F2AE313E
:1011200003F043F9002806D1002020702046FFF785
:1011300048FF002010BD012010BD38B504460D4603
:101140000C220D20604300F50071284603F02DF9B4
:1011500000280AD100220C212846FFF705FF294666
:101160002046FFF734FF002032BD012032BD80B59C
:10117000002003F0F7F80A2809D15C2201219048E9
:1011800003F013F9401E8041C043C00F02BD002090
:1011900002BD000070B506460C462046002101F055
:1011A0008BFD01D2042070BD642E4ADB643E0846EC
:1011B00008E0401C0A2DC0F20081C0B2042800F0F3
:1011C000FC800A3E042815DAF6B23546032DF0DA23
:1011D00003280FD8DFE800F00212212E784901EB36
:1011E0008505E868214601F0C7FC7E4901F052FD03
:1011F0000FD92C60FFF7FAFE002070BD704901EB9B
:1012000085052868214601F0B7FC764901F042FDCA
:1012100001D80C2070BDEC60ECE7734E20463146DF
:1012200001F0AAFC314601F0A7FC654901EB8501FC
:101230008861DFE784F00044614800EB8500446288
:10124000D8E701F0AFFB01F0D4FB01F0DBFBC0B24B
:10125000202E00F2B280DFE806F011191C2126339F
:1012600040B0B0B050535659B0B0B0B0B0B06879DB
:101270008895989B9EA1B0B0A4A9AE00032801DA7E
:10128000062070BD4E4981F83000B3E75749C87059
:10129000B0E75649487003F040FAABE7534988700D
:1012A00003F03BFAA6E7464930310A7E002803D016
:1012B00042F0040008769DE702F0FB00087699E70B
:1012C0003F4930310A7E002803D042F040000876C2
:1012D00090E702F0BF0008768CE7394930310A7E8A
:1012E000002803D042F08000087602E002F07F0080
:1012F0000876002003F0AEFE7CE73C49087179E7F0
:101300003A48846076E73948C46073E72C49303145
:101310000A7E002803D042F00100087602E002F0C5
:10132000FE00087601F053F964E7254930310A7E62
:10133000002807D0D00601D40A2070BD42F020005A
:10134000087657E702F0DF00087653E71C49303192
:101350000A7E002803D042F00800087602E002F07E
:10136000F700087603F0B2FE44E7154930310A7EF3
:10137000002803D042F0100008763BE702F0CF00CF
:10138000087637E71949487634E71848C46131E7E9
:10139000164804622EE7154988842BE713488462B7
:1013A00028E71248046102F0E1F823E70F4844619E
:1013B00002F0DCF81EE7112070BD032070BD0000B4
:1013C0007C1C00200AD7233C6F12033B00007A44A8
:1013D0000000C8410000FA430000F04200A00C47A2
:1013E000000048C301BADB4900007042AC1C002079
:1013F00080B5FFF7BCFE002809D1072000F06CF88B
:10140000FF20FFF700FEBDE8014000F07BB901BD01
:10141000010001D104207047012801D10820704744
:1014200010207047010001D120207047012801D110
:101430004020704780207047010001D10220704792
:10144000012801D1042070470820704710B50446D8
:10145000242004F02FF8204604F047F83D20BDE892
:10146000104004F027B857A004F035B880B55D20CF
:1014700004F020F8BDE80140F5E753A004F02BB8D4
:1014800052A004F028B838B50446002509E054F805
:10149000250004F0BBF8022D02DA2C2004F00AF833
:1014A0006D1C032DF3DB31BD10B50C46FFF7CEFFED
:1014B0002046C0B204F019F8BDE81040D3E738B5B3
:1014C0000C461546FFF7C2FF2946204604F040F8B7
:1014D000BDE83140C7E7000010B5040005D10FF6A4
:1014E000E000BDE8104003F0F6BF0FF6DC0003F0AB
:1014F000F2FF2046401E152857D8DFE800F00B10F9
:10150000151A1F24292E33383D4256565656565624
:10151000564C47510FF6B80003F0DDFF4CE00FF6D4
:10152000C80003F0D8FF47E00FF6D00003F0D3FF68
:1015300042E00FF6DC0003F0CEFF3DE00FF6DC00EA
:1015400003F0C9FF38E00FF6E80003F0C4FF33E012
:101550000FF6EC0003F0BFFF2EE00FF6081003F0CB
:10156000BAFF29E00FF6081003F0B5FF24E00FF6EC
:101570000C1003F0B0FF1FE00FF6141003F0ABFFE8
:101580001AE00FF61C1003F0A6FF15E00FF624106A
:1015900003F0A1FF10E00FF6341003F09CFF0BE006
:1015A0000FF63C1003F097FF06E00FF6481003F02B
:1015B00092FF204603F099FF02A0BDE8104003F01F
:1015C0008ABF00000D0A000020470000204D0000E7
:1015D00010B504460FF6301003F07DFF2046401E84
:1015E000082833D8DFE800F0050A0F14191E232855
:1015F0002D000FF61C1003F06EFF2AE00FF61C10F2
:1016000003F069FF25E00FF6201003F064FF20E0EF
:101610000FF6281003F05FFF1BE00FF6341003F005
:101620005AFF16E00FF63C1003F055FF11E00FF6DD
:10163000481003F050FF0CE00FF6501003F04BFF82
:1016400007E00FF65C1003F046FF02E0204603F0CF
:101650004CFFFFF708FF0520BDE8104001F007B977
:1016600010B504460FF6501003F035FF641E0A2C27
:101670003DD8DFE804F0060B10151A1F24292E337D
:1016800038000FF63C1003F026FF30E00FF6441050
:1016900003F021FF2BE00FF6501003F01CFF26E0B3
:1016A0000FF6581003F017FF21E00FF6581003F063
:1016B00012FF1CE00FF6581003F00DFF17E00FF6B5
:1016C0005C1003F008FF12E00FF6601003F003FF58
:1016D0000DE00FF6601003F0FEFE08E00FF6681054
:1016E00003F0F9FE03E00FF6741003F0F4FEBDE81A
:1016F0001040BBE60FF6701003F0EDBE0FF6881039
:1017000003F0E9BE2DE9F041DFF89C4604F1300515
:1017100029780020FFF7C8FEE9780120FFF7C4FE12
:1017200069780220FFF7C0FEA9780320FFF7BCFE0E
:10173000287E800800F001010420FFF7B5FE287E16
:10174000800900F001010520FFF7AEFE287EC109E7
:101750000620FFF7A9FE29790A20FFF7A5FE03223C
:10176000A9680B20FFF7ABFE0322E9680C20FFF706
:10177000A6FE287E00F001010D20FFF795FE287ED1
:10178000400900F001011420FFF78EFE287EC008FA
:1017900000F001011520FFF787FE287E000900F008
:1017A00001011620FFF780FE697E1720FFF77CFEFF
:1017B0000322E9691820FFF782FE0322296A192013
:1017C000FFF77DFEA98C1A20FFF76EFE0322A96A9F
:1017D0001B20FFF774FE002229691E20FFF76FFE11
:1017E000002269691F20FFF76AFE00212020FFF711
:1017F0005BFE6425002602E00A35EDB2761C042E5D
:1018000038DA00270AE0032204EB8700416A81F0FE
:1018100000417819C0B2FFF752FE7F1C032FEBDAAC
:1018200030460328F9D8DFE800F0040C1503F4E78C
:10183000E9E7032254F827107819C0B2FFF73FFEFA
:10184000EBE7032204EB8700C1687819C0B2FFF709
:1018500036FEE2E70322904604EB87008069DFF85A
:101860004C1503F00FFF014642467819C0B2FFF74E
:1018700026FED2E7BDE8F081E0B50FF6580003F090
:101880002AFEDFF82C15684600F0B5FE6846FFF723
:10189000FAFD3A2003F00EFEDFF81805407903F058
:1018A00024FEFFF7E3FD07BD10B584B000240DE072
:1018B00004F13600C0B203F018FE3A2003F0FAFD3E
:1018C0006846FFF7E0FDFFF7D1FD641CE4B2082C89
:1018D0001ADA69462046FFF730FC002803D10720BA
:1018E000FFF7FAFD1FBD5CA003F0F5FD20460628BA
:1018F00002D0072804D0DBE758A003F0ECFDDCE7BA
:1019000057A003F0E8FDD8E70FF2D07003F0E3FD35
:10191000DFF8A44404F13400FFF7B5FDFFF7A6FD9E
:101920000FF2C07003F0D7FD206C03F06FFEFFF7DD
:101930009DFDFFF7A1FF1FBD10B50FF2B07003F0C2
:10194000CAFDDFF8744420788C2808DB45A003F03A
:10195000C2FD20787630C0B203F0C7FD01E003F08D
:10196000C4FDFFF78AFDA0793630C0B203F0BDFD9B
:10197000FFF783FD20791130C0B203F0B6FDFFF709
:101980007CFDA078C0F11500C0B203F0AEFDFFF7FA
:1019900074FDE0785A30C0B203F0A7FDFFF76DFD8B
:1019A0006078C0F15E00C0B203F09FFDE0790028CE
:1019B00010D0FFF765FDE0790146022908D0032920
:1019C00002D01E2904D005E0302003F073FD01E0B1
:1019D00003F08BFDFFF754FD607A00280CD010282F
:1019E00002D0202804D00AE0332003F063FD06E093
:1019F000342003F05FFD02E0352003F05BFDFFF7CC
:101A00003FFD207A002803D0382003F053FD02E088
:101A1000392003F04FFD14A003F05DFD207D03F09D
:101A200064FD12A003F057FD206903F007FEBDE836
:101A300010401BE538B504460D460DA003F04BFDE4
:101A4000204603F052FD3D2003F034FD284603F00C
:101A500037FDBDE8314006E55B4700003238000045
:101A60003330000033382E002054000020460000A0
:101A7000244E000038B504460D463E2003F01AFD02
:101A8000204603F01DFD3A2003F014FD2846BDE872
:101A9000324021E510B504460FF2586003F01BFDFB
:101AA000204603F00DFDFFF7E1FC0FF25C6003F050
:101AB00012FD2C2003F0FEFC0F2003F016FD2C205D
:101AC00003F0F8FC802003F010FDBDE81040CDE4E9
:101AD0002DE9F04389B00C22B84906A800F0FCFDBE
:101AE00006A903A800F087FD3C2003F0E3FCB14CFD
:101AF0002078002810D0012832D0022835D00428C0
:101B000029D008280DD010280FD020281FD0402819
:101B100030D0802849D04CE00FF2F45003F0DBFCC9
:101B200047E09DA003F0D7FC43E0A07800060ED468
:101B30000FF2E45003F0CFFCA078C00703D53020AB
:101B400003F0B8FC35E0312003F0B4FC31E093A0A1
:101B500003F0C1FC2DE00FF2C85003F0BCFC28E0FC
:101B60000FF2C45003F0B7FC23E00FF2C45003F0AF
:101B7000B2FC1EE00FF2C05003F0ADFCA0780107EC
:101B800003D5332003F096FC13E0410709D5800606
:101B900003D5312003F08EFC0BE0302003F08AFCEB
:101BA00007E0322003F086FC03E00FF2945003F0CC
:101BB00092FC7D4D95F83460F00702D5207B00281B
:101BC00024D10027E9461FE0DFF8EC8108EB87000D
:101BD000816A406B01F09CF9014649F82710022FF9
:101BE00005D1D8F8400001F093F949F82700F00733
:101BF00009D40DF10C0858F8270059F8271000F007
:101C000047FF48F827007F1C032FDDDBF00704D5D2
:101C10000FF2345003F05FFC03E00FF2345003F096
:101C20005AFC03A8FFF72FFC95F8340080070ED567
:101C30000FF2245003F04FFC04F044F803F055FC7D
:101C40002C2003F037FC03F029FC03F04EFC54A0D9
:101C500003F041FC03F0C0F903F0F0FC03F083FA59
:101C6000064600F0D2FA054603F005FA074645EAB3
:101C7000060038432ED00FF2E84003F02CFC002F72
:101C800002D0502003F016FC002E10D03046C007C2
:101C900002D5582003F00EFC3046800702D55920AB
:101CA00003F008FC700702D55A2003F003FC002D56
:101CB00010D02846C00702D5522003F0FBFB28466F
:101CC000800702D5482003F0F5FB680702D55320B2
:101CD00003F0F0FB207B010002D0401E207314E0D3
:101CE00020787C21084202D01D20207301E00920C9
:101CF0002073E07A002801D10120E0720FF26840E1
:101D000003F0E9FB6846FFF7BEFBE07A010002D072
:101D1000401EE07237E020787C21084202D0132078
:101D2000E07201E00920E0720FF2444003F0D3FBBF
:101D3000E07903F0DAFB2C2003F0BCFB207A03F0FF
:101D4000D4FB2C2003F0B6FB607A03F0CEFB01F04D
:101D50001AFC044601F064FC054655EA040012D062
:101D600010A003F0B8FB002C08D0E00703D55320E7
:101D700003F0A0FB02E0432003F09CFBE80702D540
:101D8000462003F097FB3E2003F094FBFFF76BFB2C
:101D900009B0BDE8F083000052756E004A6F67001D
:101DA0007C463A007C413A007C1C002000006145E2
:101DB000101E0020EC1D0020281D0020041E002005
:101DC0006F6B0D0A000000006572726F723A20009E
:101DD000457870656374656420636F6D6D616E64D2
:101DE000206C657474657200426164206E756D626A
:101DF000657220666F726D6174000000496E7661D5
:101E00006C69642073746174656D656E74000000A4
:101E100056616C7565203C20300000005365747479
:101E2000696E672064697361626C6564000000001C
:101E300056616C7565203C20332075736563000026
:101E4000454550524F4D2072656164206661696C52
:101E50002E205573696E672064656661756C7473B6
:101E6000000000004E6F742069646C650000000083
:101E7000416C61726D206C6F636B0000486F6D691F
:101E80006E67206E6F7420656E61626C6564000021
:101E90004C696E65206F766572666C6F7700000026
:101EA000537465702072617465203E2033306B4836
:101EB0007A0000004D6F64616C2067726F7570204E
:101EC00076696F6C6174696F6E000000556E737592
:101ED00070706F7274656420636F6D6D616E640005
:101EE000556E646566696E6564206665656420721A
:101EF00061746500496E76616C69642067636F6424
:101F0000652049443A000000414C41524D3A2000BE
:101F100048617264206C696D69740000536F667467
:101F2000206C696D6974000041626F727420647581
:101F300072696E67206379636C65000050726F622E
:101F400065206661696C20696E6974616C000000CF
:101F500050726F6265206661696C20636F6E746198
:101F600063740000486F6D696E67206661696C205C
:101F70007265736574000000486F6D696E67206656
:101F800061696C20646F6F7200000000486F6D69BA
:101F90006E67206661696C2070756C6C6F66660098
:101FA000486F6D696E67206661696C206170707240
:101FB0006F616368000000005B4D53473A0000000A
:101FC000526573657420746F20636F6E74696E75EB
:101FD00065000000272448277C2724582720746F99
:101FE00020756E6C6F636B0043617574696F6E3A38
:101FF00020556E6C6F636B6564000000456E616216
:102000006C65640044697361626C65640000000083
:10201000436865636B20446F6F72000043686563BB
:102020006B204C696D6974730000000050676D206F
:10203000456E6400526573746F72696E67206465E3
:102040006661756C74730000526573746F72696EAB
:1020500067207370696E646C65000000536C656581
:1020600070696E67000000000D0A4772626C2031D3
:102070002E3166205B27242720666F722068656CEE
:10208000705D0D0A000000005B484C503A2424208B
:10209000242320244720244920244E2024783D76E0
:1020A000616C20244E783D6C696E6520244A3D6C3D
:1020B000696E652024534C5020244320245820244A
:1020C00048207E2021203F206374726C2D785D0DA6
:1020D0000A0000005B5052423A0000005B47393270
:1020E0003A0000005B544C4F3A0000005B47433A13
:1020F000470000005B5645523A312E31662E323091
:102100003137303830313A005B4F50543A000000DC
:1021100049646C6500000000486F6C643A00000080
:10212000486F6D6500000000416C61726D00000039
:10213000436865636B000000446F6F723A000000F3
:10214000536C6565700000007C4D506F733A000061
:102150007C57506F733A00007C42663A00000000E2
:102160007C506E3A000000007C57434F3A0000005C
:102170007C4F763A0000000010B5DFF818452021AA
:10218000204603F002FE4021204603F0FEFD8021A0
:10219000204603F0FAFD4FF48071204603F0F5FD70
:1021A0000C2320220521002003F002FE0C234022F4
:1021B0000621002003F0FCFD0C23802207210020D3
:1021C00003F0F6FD0C234FF480720821002003F089
:1021D000EFFD01222021204603F0E4FD01224021F1
:1021E000204603F0DFFD01228021204603F0DAFDC6
:1021F00001224FF48071204603F0D4FD00221146E5
:102200001720BDE8104003F0EEBD00200146DFF8C6
:10221000882413689B0600D5012113685B0601D54D
:1022200041F0020113681B0601D541F00401126858
:10223000D20501D541F0080100290CD00A46D20789
:1022400000D401200A46920701D440F00200490759
:1022500001D440F00400704780B5FFF7D6FF002896
:1022600017D00146C90702D501F06DFC11E0014607
:10227000490706D5DFF82404017841F00201017016
:1022800007E0800705D5DFF81404017841F0080164
:1022900001704FF4F070BDE8024003F0F6BD38B5B0
:1022A000044600250AE02078002806D02046FDF7E5
:1022B0003BFF01462046FFF7DDFB6D1C022D0CDACB
:1022C00021462846FEF710FF0028ECD100202070A0
:1022D00007212046FFF7CEFBEFE731BD70B584B094
:1022E000044601208DF800000025607801000AD026
:1022F00024291ED043291CD047291AD04A2907D0A7
:10230000582916D051E0FFF7F9F9002004B070BD4C
:10231000DFF88C633178080002D0202940F0F0808B
:10232000A0783D2801D00320F0E72046FDF7FCFE11
:10233000ECE7A178002901D00320E7E7242806D0A4
:10234000432811D047280CD0582820D0DDE7DFF8EB
:10235000500300781821084240F0D280FFF7D2F9EC
:10236000D3E7FFF7E9FAD0E7CD4E3178022905D15E
:1023700001F0E9FB0520FFF773F9C6E7002940F0FB
:10238000BF80022030700420FFF76AF9BDE7C44E19
:1023900030780128B9D10020C04600282DD1032073
:1023A000FFF75EF928463070AFE7BD4E31780A007E
:1023B00002D0012940F0A48023280BD0482811D056
:1023C000492845D04E2800F09380522867D05328E2
:1023D0002FD0AAE0A078002801D0032096E7FFF7CD
:1023E00063FA92E7AF4890F84800C00601D4052090
:1023F0008CE70020C046002801D00D2086E704208D
:102400003070A078002812D1284601F020FB7078A7
:1024100000287FF47AAF2846307002F00CF8A078DC
:1024200000287FF472AF2046FFF739FF6DE70320E5
:102430006CE7A0784C2805D1E078502802D12079AB
:10244000002801D0032061E7802000F0FEF85CE75F
:1024500002208DF80000A078002806D12046FEF763
:102460005AFE2046FFF716FB4FE703208DF80000C9
:10247000A0783D2801D0032048E79DF80000215CAA
:10248000204400F8031C9DF80000411C8DF800104A
:10249000205C0028F1D12046FEF793FD35E7A078B7
:1024A000532808D1E078542805D120793D2802D15D
:1024B000A079002801D0032028E7607923280DD0D7
:1024C000242802D02A280DD010E00120FEF79BFD21
:1024D0000920FFF7C5F801F036FB16E70220FEF7EA
:1024E00092FDF5E7FF20FEF78EFDF1E703200DE7F3
:1024F00002208DF80000A078002808D0002913D011
:10250000082003E721462846FFF794FA6D1C022DA8
:10251000BFF6FBAE21462846FEF7E6FD0028F1D1C6
:102520000720FEF7D9FFF1E7012501AA69462046F9
:1025300000F0FEF8002833D09DF80000411C8DF813
:102540000010205C3D2801D00320DFE6002D20D0C4
:102550009DF800009DF80010625C091A62549DF815
:1025600000104A1C8DF80020615C0029F2D1204641
:10257000FDF7DAFD05007FF4C9AE019800F012FA0C
:1025800000F037FA00F03EFA2146C0B2FEF70AFD2D
:10259000BBE602AA6946204600F0CAF8002801D12D
:1025A0000220B3E69DF80000205C002804D10198C9
:1025B0003D4900F06FFB01D80320A7E602990C46C5
:1025C00003F06CFC2146C0B2FEF7E4FD9EE680B548
:1025D00001F02EFC00203249087301BD10B50C46F5
:1025E00050F8240000F03AFA2E4951F82410BDE8C2
:1025F000104003F047B8F8B504460D46002606E043
:1026000031462846FFF7EAFF44F82700761CF6B269
:102610003746032FF4DBF1BD80B50246002301E00D
:102620005B1CDBB2032B0EDA52F82300002100F012
:1026300031FB06D31B4901EB8301496A00F03CFBE7
:10264000EED2012002BD002002BD14490A781043D9
:102650000870704711490A7822EA00000870704734
:1026600012490870704700201049087070471049DF
:102670000A781043087070470E490A7810430870B2
:10268000704700200A490870704700200949087007
:10269000704700000008014008080140FD1D0020AF
:1026A000EC1D00207C1C002001007F43FE1D00204B
:1026B000FF1D0020001E002062B38B0708D0521EB1
:1026C00011F8013B00F8013B00F024808B07F6D1A4
:1026D000830740F0208000BF103A07D330B4B1E840
:1026E0003810103AA0E83810F9D230BC530724BF94
:1026F000B1E80810A0E8081044BF51F8043B40F8C6
:10270000043BD20724BF31F8022B20F8022B44BF30
:102710000B7803707047083A07D3B1E80810083AFD
:1027200040F8043B40F804CBF7D25307E4E700003D
:102730002DE9F04781468846144698F8000009EBD9
:10274000000515F8011B00262D2903D1012615F8D7
:10275000011B03E02B2901D115F8011B00200746BE
:102760000246034608E0002B00D07F1E00EB8000ED
:1027700001EB400015F8011B3039C9B20A2907DA0C
:10278000521CD2B2092AEEDB002BF3D17F1CF1E7F9
:10279000FE2903D1002B01D10123EBE7002A01D14F
:1027A00000203EE000F064F98246002100F0F2FBD8
:1027B00028D00AE0504600F0F5F8724A724B00F05B
:1027C0008DFA00F05DFB8246BF1C7FB2384610F1E7
:1027D000010FEFDB00280AD5504600F0E3F86B4A02
:1027E0006B4B00F07BFA00F04BFB82460AE00128BD
:1027F00008DB6848514600F0BFF982467F1E7FB271
:10280000012FF6DA002E04D08AF0004AC4F800A0A6
:1028100001E0C4F800A0A5EB0900401E88F8000004
:102820000120BDE8F08770B50C465B4900F0A4F9C3
:1028300000F0B8F803F054FB00F0E4F80546574EFA
:1028400006E020000DD101F010FB322003F0A5FBC3
:102850002846451E80B2002808D070780028F0D0A5
:1028600070BD01F00EFBB0788007EED570BD10B5DD
:10287000044602E0012003F090FB2046441E80B293
:102880000028F7D110BD38B50C46014600F074F9A8
:1028900005462046214600F06FF9294600F038FB36
:1028A00000F080F800F076FCBDE8344000F0E8BAB3
:1028B000F8B5044600252E460EE054F8267038463A
:1028C000002100F067FB06D0394600F055F9294693
:1028D00000F01EFB0546761C032EEEDB284600F0BA
:1028E00061F800F057FC00F0CBFA05464FF07E503F
:1028F000294602F0C7FE0646002707E054F82700E5
:10290000314600F039F944F827007F1C032FF5DB2E
:102910002846F2BD2DE9F84304460D46204E002717
:1029200029E055F827201046002100F033FB21D084
:1029300054F82700114602F0A5FE00F033F821F00C
:10294000004102460B4690469946304600F02AF870
:1029500042464B4600F0C2FD0CD354F8270055F810
:10296000271002F08FFE00F01DF821F0004100F06A
:1029700087FA06467F1C032FD3DB3046BDE8F2837F
:10298000000000007B14AE47E17A843F9A99999940
:102990009999B93F000020410000A041EC1D0020A2
:1029A0009976967E5FF0FF0C1CEAD05114BF61450A
:1029B00006E0C110400721F0E04101F1605170478D
:1029C00079B900F0004100020AD0B0FA80FC00FAA8
:1029D0000CF001F16051A1EB0C5101EBD02140054D
:1029E000704741020CBF40F4E0016FF0000100208D
:1029F000704783B50021684603F0EEFADDE9000177
:102A000003B000BDF446400D40EAC120490006D2A3
:102A100000F014F8004248BF6FF00040604700F03B
:102A20000DF84FF0004188428CBF08464042604795
:102A3000400D40EAC120490080F00D8040F0004088
:102A4000490DA1F58061491C05D4D1F11F0154BF86
:102A5000C840C01770474FF000007047002840F191
:102A60000980F446404200F005F850F0004060470D
:102A7000002800BF0AD0B0FA80F18840D1F19D0152
:102A8000C905020672F1004241EB102070470000B8
:102A900090EA010F44BF81F0004100F041BA00BF4D
:102AA000431A4FF000423EBF5340C01AC91800BF3E
:102AB000D3095FEAD05C13EB400F34BFB3EB410F97
:102AC00040E07CEBD1530CD342EA012122D8D1EB78
:102AD000402009D3400A28BF5FEA500140EBCC50A8
:102AE0007047401A15D04002B0FA80F2521C904054
:102AF000400A4FEA3C23B3EB026384BF00EB730050
:102B000007E040F400001A16DB07C2F10102D040D2
:102B100018437047182BFCDC31FA03F202FA03F376
:102B2000591A38BF42F00102D2EB40203CBF4000AE
:102B3000ACF1010C5FEACC5CC20572F100414CEBD8
:102B40005020704713EB400F0FD24B0009D0ACEB75
:102B5000D153022B03DB4902172BDDDD7047914374
:102B6000401A4300D5D10020704713EB410FD0D35A
:102B70006FF0000070470000FF2212EAD05C1DBF1A
:102B800012EAD153944593422BE09C44D30780EA48
:102B900001021A4043EA002043EA0121A1FB003070
:102BA000410038BF40007CF17F010BDBFE294ADA8F
:102BB0005B0842EAC15153EA006373F1004C51EBE8
:102BC00010207047D1F1080CDCF120012FDB5B08ED
:102BD00010FA01F10B4373F1004120FA0CF050415F
:102BE000704794451CBF02EAD153934280EA010228
:102BF00002F000421DD0400019D0490017D05BB947
:102C0000634514D00902B1FA81F39940BCEB030C7F
:102C1000C00140F00040C1E70002B0FA80FC10FAA9
:102C20000CF0B3EB0C0CC90141F00041B6E7100009
:102C3000704740000AD0490008D010F1807F94BF4F
:102C400011F1807F02E042F0FF407047D0437047AF
:102C500083B50121684603F0BFF9401E012811D950
:102C60000021684603F0B8F960B10198DDE900235E
:102C7000002847BF002005490020054903F0EAF974
:102C8000CDE90001DDE9000103B000BD0000F0BFA7
:102C90000000F03F4FF0807C1CEB400F94BF1CEB1A
:102CA000410F05E040EA010C5FEA4C0C01D2814281
:102CB000704718BF884270474FF0807C1CEB400F74
:102CC00094BF1CEB410F05E040EA010C5FEA4C0C9D
:102CD00001D28842704718BF81427047B0B581EA7F
:102CE000030C0CF0004C40F2FF7515EA11541DBFA7
:102CF00015EA1357AC42AF4239E0E41923EA4553D1
:102D000043F48013C90241F0004141EA505EC7021A
:102D10001100A7FB020200284FF00000EEFB01208B
:102D20004FF00001E3FB072118BF42F001024018F9
:102D300000214941E3FB0E01A4F580640F0302D298
:102D400052004041494154F101046CDD470872F1E1
:102D5000004250F1000051EB0451A1F580115CBF1D
:102D600041EA0C01B0BD4CEA05510020B0BD05EAB6
:102D70001357AC4214BFAF4241E050EA410E1CBFB2
:102D800052EA430E02E061460020B0BD24423C44BA
:102D90001BD15FEA070EF6D0090302BF01460020EF
:102DA000AEF1140EB1FA81F7AEEB070401FA07FE9B
:102DB0000C37C7F1200100FA07F7C8404EEA000EB1
:102DC00023EA455343F48013A2E733F00043B3FAF8
:102DD00083F704BFB2FA82FE77440B3FE41BB7F1DE
:102DE000200E2FBF02FA0EF3BB40C7F1200E22FACD
:102DF0000EFE38BF43EA0E03BA40641C82E750EA75
:102E0000410E14BF52EA430E6FF000014FF4001759
:102E100017EB430F8ABF194617EB410FB5E74CEA92
:102E200005510020B0BDD4F10104B4F120070FDA40
:102E3000C4F12007520828BF42F0010210FA07F53A
:102E400001FA07F7E1BF2A43E0403843E1400FE0D1
:102E5000352C98DCC7F1200452EA400220FA07F230
:102E600018BF42F0010231FA07F0A1400A430021E5
:102E700072F1004250F1000051EB0C01B0BD0000B6
:102E80004FEAF17CBCF1E04C2CBFBCF5001F11E017
:102E90005FEA4C0C34BFBCF17F5F2EE05FEA9C0C14
:102EA0004FEA0C1C4FEA3C0CC10071F100414CEBA5
:102EB00050707047C90241EA5051C00218BF41F03A
:102EC000010141F000414FEA6C50C0F10900212896
:102ED00010D240EACC7CCCF1200C11FA0CF070F14D
:102EE0000040CCF1200C21FA0CF00CF0004C40EB2F
:102EF0000C0070474FEACC707047490011F5001F75
:102F000004D84FEACC10FF30C0057047C81770478F
:102F100090EA010F44BF81F00041FFF7C1BD00BF3F
:102F2000421A3CBF801A89184FF0004CC0F3C752B8
:102F3000FF2A24D0C1F3C75313B3D21AD2F1190315
:102F400027DD4CEA01214CFA03F321EA0303D140C7
:102F5000C20D4CEA0020401834BF20EA0C004CEAB5
:102F60005000D20553EA006373EB0C0C52EB1020B7
:102F7000420012F1807F38BF7047C00DC005704716
:102F8000490212BF9A4200EB5120F8E7D2F1170331
:102F9000D9D5704740EA010C5FEA4C0C07D0884253
:102FA00005D14FEA400C1CF1807F98BF80427047EA
:102FB0000300002013F0030F09D0521E22BF13F8A4
:102FC000010B11F801CBB0EB0C00F3D07047121FCE
:102FD00022BF53F8040B51F804CB6045F7D0121D03
:102FE0000AD200BA9CFA8CFCB0EB0C0038BF6FF030
:102FF000000088BF01207047521E22BF13F8010B4A
:1030000011F801CBB0EB0C00F6D0521C08BF1046F3
:1030100070470000F0B44FF0004591EA030F44BF41
:103020006B4003F021B800BF841A71EB030604D291
:103030006E40001BB141121973414FF4001C1CEB90
:10304000410F34BF7CEB430684E00C0DA4EB135618
:10305000362E7DDC012E43DC45EAC32343EA52537E
:1030600012BFD20292025B08240545EAC12141EA5F
:103070005051D2EBC020994125D407D1B0FA80F647
:1030800010FA06F164D00020203608E0B1FA81F68B
:10309000B140C6F1200220FA02F21143B0404FEADB
:1030A000F474B4EB465434F001064FEA74040AD8C1
:1030B000D6F50016760D04F00044F04061FA06F2F1
:1030C0005040F1404840C00A40EA415021F00041E0
:1030D00028BF5FEA500550F1000044EBD12137E0F2
:1030E00045EAC323DB0A45EAC121C90AB6F1200536
:1030F0000EDD42EA0242120CC5F1200603FA06F682
:10310000EB4042EA06056D42984161F100010DE095
:1031100062FA06F5F240554063FA06FC82EA0C02B8
:10312000F3405A406D42904161EB030111F4801F5E
:1031300005D1641E620502D06D004041494121F471
:103140008011430875F1004350F1000041EB045138
:10315000F0BC70471CEB410F15D223F0004352EA3C
:1031600043060BD04FEA4C0CBCEB410F04D80C0DBE
:10317000661E342EB7DDEBE7801A994150EA41060E
:1031800008BF0021E4E708BF1CEB430F28BF6FF026
:103190000001DDE740F2FF7C0B0D4DD0634566D2A8
:1031A00030B421EA035141F4801103F2FD3C5FEA9F
:1031B0005C0C01D300184941890041EA90718000FC
:1031C0004FF440140023E202D50AB1F5100107D4F0
:1031D0006D081DD2091B641900184941491BF7D518
:1031E0006D080AD20919641B00184941491BEFD523
:1031F0006D08F7D301E0520817D0C01861419B1A3F
:10320000AC4100184941801AA941F4D452080AD0AF
:10321000C01AA1419B186C4100184941801AA9416C
:10322000E9D45208F4D15B1C6C4161084FEA3300C9
:1032300001EB0C5130BC704750EA0103FBD030B4B5
:10324000B1FA81F311B9B0FA80F41B190B3BB3F159
:1032500020042FBF00FA04F19940C3F1200420FAA2
:1032600004F438BF21439840D3F101039DE763453F
:10327000E1D011F5801FDED850EA4101DBD0D943FF
:1032800002F05CBF2DE9F04140F2FF7581EA030CCA
:103290000CF0004C15EA11541DBF15EA1357AC424F
:1032A000AF42E9E0BC41C1F31301C3F31303801A39
:1032B000994143F4801304D2641E400049418018B0
:1032C0005941C90241EA5051B1FBF3F603FB161113
:1032D000A2FB0675D7EBC020A94102D2761E80184A
:1032E0005941C90241EA5051B1FBF3FE03FB1E11E3
:1032F000A2FB0E75D7EBC020A94103D2AEF1010E9F
:1033000080185941890241EA9051760546EA8E2E8D
:10331000B1FBF3F603FB1611A2FB0675D7EB802079
:10332000A94102D2761E80185941C90241EA505182
:103330004EEA060EB1FBF3F603FB1611A2FB06756F
:10334000D7EBC020A94102D2761E80185941C9028C
:1033500041EA5051B1FBF3F703FB1711A2FB07350C
:10336000D3EBC020A94167F100070CBF004247F032
:10337000010766F3D5274FEA1E31B80814F58064BB
:1033800014DDBD0775F1004250EB0E5051EB0451B6
:1033900011F5801F5CBF41EA0C01BDE8F0814CF0E3
:1033A0007F6141F0E0410020BDE8F081BD076D087C
:1033B00040EA0E5041F48011D4F10104B4F120062A
:1033C0000ADAC4F120060200E04001FA06F3E14007
:1033D0001843B24015430EE0342C14DCC6F120042F
:1033E00045EA40056D0820FA06F2154321FA06F079
:1033F000A1400D43002175F1004250F1000051EB56
:103400000C01BDE8F08100205FEA0C01BDE8F0810D
:10341000CFB992185B41B3FA83F704BFB2FA82F6D0
:10342000BF190B3FB7F120062FBF02FA06F3BB40CE
:10343000C7F1200622FA06F638BF3343BA401CB162
:10344000E419641E2FE77F4231F00041B1FA81F4A4
:1034500004BFB0FA80F6A4190B3CB4F120062FBFCC
:1034600000FA06F1A140C4F1200620FA06F638BFA2
:103470003143A0403C1B16E7AC421ABF05EA135784
:10348000AF4214E050EA41061CBF52EA4306BFE7D0
:1034900050EA4107304661461CBF41EA0551BDE88C
:1034A000F08152EA430C08BFC143BDE8F08100201F
:1034B0004FF4001616EB410F98BF16EB430F08BFF1
:1034C00016EB410F24BFC14305E016EB430F0CBFC1
:1034D00061464CEA0551BDE8F08100004FF4001C44
:1034E0001CEB410F94BF1CEB430F09E041EA030CB6
:1034F00050EA4C0C52EA0C0C03D2994208BF90429D
:10350000704714BF8B4282427047000038B50446B2
:103510000D46E8682060207A40F0040020721148CF
:1035200090F84800800607D505F13400FFF774F8DD
:10353000002801D00F2032BD214605F1340000F0F3
:10354000A3F8094C2078002809D102F0EAF90028F4
:1035500005D02020207001F092F900F049FF0020F2
:1035600032BD00BF7C1C0020EC1D002010B5254C96
:103570000221204602F0FCFB0421204602F0F8FB69
:10358000BDE810400CE020480168890706D50068B6
:10359000400701D502207047012070470020704786
:1035A00000220221174802F0FDBB38B5174C6178A4
:1035B000002919D1010002D1FFF7F2FF12E0114DED
:1035C000102805D100220421284602F0EBFB04E07C
:1035D00001220421284602F0E5FB012202212846AF
:1035E00002F0E0FB0020E07231BD10B50446074850
:1035F0000078022805D000F01BFC2046BDE81040F2
:10360000D3E710BD000801400C080140EC1D00206C
:1036100080B54021194802F0ABFBBDE8014006E04F
:10362000002017490968490600D50120704700228B
:103630004021124802F0B6BB10B5124C6178002947
:103640000DD1010002D1FFF7F2FF06E0400604D5DC
:1036500001224021094802F0A5FB0020E07210BDC4
:1036600010B5044607480078022805D000F0E0FBBA
:103670002046BDE81040DFE710BD0000000C01400F
:103680000C0C0140EC1D0020F8B504460D46DFF897
:103690000865DFF8087597F84800800605D530788A
:1036A000202802D0204601F0C5FE3078022802D141
:1036B000F1BD00F0CFFB00F0D8FB7078002815D1E9
:1036C00002F052F90028F4D12946204602F0CEF942
:1036D00000280BD197F84800800707D5287AC00644
:1036E00004D51020BDE8F240FFF77FBFF1BD2DE902
:1036F000FB4F86B0164618469DF84C1050F82140F6
:10370000084656F820002146FFF702FC049008986E
:103710009DF8501050F82150084656F820002946D0
:10372000FFF7F6FB039084F0004485F0004506980F
:103730009DF84C1050F821000499FFF7A9F9804634
:1037400006989DF8501050F821000399FFF7A0F952
:10375000074620464146FFF70FFA8146284639467C
:10376000FFF70AFA4946FFF7D3FBFFF71BF90246BA
:103770000B4692469B4620463946FFF7FDF9074621
:1037800028464146FFF7F8F901463846FFF780F929
:10379000FFF708F952465B4602F0D6FCFFF770FBD4
:1037A000074616980028384610D0DFF8F413FFF7C4
:1037B00071FA1BD8FFF7F6F8DFF8E823DFF8E833F3
:1037C00002F048FCFFF75CFB07460FE0DFF8DC1374
:1037D000FFF772FA0AD2FFF7E5F8DFF8C823DFF83F
:1037E000D03302F037FCFFF74BFB0746DDF848808B
:1037F0003846FFF7D7F80022DFF8B833FFF76EFA44
:1038000082468B464046FFF7CDF852465B46FFF7AF
:1038100065FA82468B462BF0004BE048D0F83C908E
:103820004FF080404146FFF7A7F94946FFF730F9CE
:103830004946FFF7A1F9FFF7B5F8FFF7ABFC0246E1
:103840000B4650465946FFF71DFD02F0E3FCFFF71B
:10385000D9F880B20190002800F0E18001A800882A
:10386000FFF706F980460798007A00070CD50798FD
:1038700000684146FFF780F9079908600798007AC9
:1038800000F0F700079908723846414601F0FAFE49
:10389000009006989DF8541050F8210056F8211019
:1038A000FFF7F6F8414601F0EDFE05900099084655
:1038B000FFF762F901464FF08040FFF7E9F807464D
:1038C0000098FFF76FF8BC4ABC4BFFF707FA804639
:1038D00089463846FFF766F80022B94B02F0BAFB7A
:1038E00042464B46FFF7FAF9FFF7CAFA02904FF04B
:1038F0007C503946FFF740F981464FF00008012718
:1039000001E07F1CBFB20198874280F288805FFA95
:1039100088F8B8F10C0F1EDA02982146FFF72CF94F
:10392000824628464946FFF727F95146FFF7F0FA45
:10393000824620464946FFF71FF904460298294669
:10394000FFF71AF901462046FFF7A2F8044655464C
:1039500008F101083EE03846FFF78AF80099FFF7C2
:103960000BF9FFF71FF804460D4602F082FCFFF743
:1039700087FA80462046294602F07EFCFFF780FA4F
:10398000054608989DF84C1050F821A09DF850105D
:1039900050F821B058462946FFF7EEF80446504645
:1039A0004146FFF7E9F801462046FFF771F8044663
:1039B00050462946FFF7E0F880F00040054658469B
:1039C0004146FFF7D9F801462846FFF761F805465A
:1039D0004FF0000804982146FFF79AFA9DF84C1022
:1039E00046F8210003982946FFF792FA9DF85010F7
:1039F00046F821009DF8540056F820000599FFF77D
:103A000087FA9DF8541046F8210007993046FFF7D1
:103A10003BFE6148407800283FF473AF05E007990A
:103A2000069809B0BDE8F04F2EE609B0BDE8F08F6A
:103A300010B5044658480078022807D000F0F8F97D
:103A400000212046BDE81040FEF7EDBE10BD80B558
:103A500001F084FB042001F0BBFB032001F0B8FB64
:103A600000F003FA4C484078002807D1FCF752FBDD
:103A700002F01BF9BDE8014001F028BB01BD2DE9B2
:103A8000F04105460E461746434C2078022801D1E6
:103A9000002056E000F0CCF96078002827D13846A5
:103AA000000900F0010800206071F80800F0010032
:103AB00001F0D0FA01F0DFFA002809D00420FEF767
:103AC000CFFD00F0D2F9002001F0C4FA022038E066
:103AD00031462846FFF7D8FD3A4D012028700220D4
:103AE000FEF7B3FD00F0C1F96078002801D0022094
:103AF00027E020780028F5D1287801280CD1B8F1EA
:103B0000000F05D00C2230493048FEF7E5FD05E0F6
:103B10000520FEF7A5FD01E001206071002028705E
:103B200001F098FA00F0A1F900F01AFE01F0CBFEC6
:103B300002F0BBF8FDF7A0FE6179481E8041C0434A
:103B4000C00FBDE8F08122480078C00600D570475C
:103B500080B51020FEF779FDFFF722FDFFF767FD26
:103B60000D4801782C22114203D10079062210421F
:103B700010D0042907D117480078002806D1062064
:103B8000FEF76EFD02E00320FEF76AFDBDE801408E
:103B900000F051BC01BD0000EC1D00207C1C002089
:103BA000BD3706B5182D4454FB2119C0BE37063564
:103BB000FB2119400000E03F4BDA7D5C5555C53FC5
:103BC00000001040FC1D0020041E0020101E0020DC
:103BD000FD1D0020FE1D00202DE9F041DFF86447A7
:103BE000DFF8640790F84800000708D501F0BBFA39
:103BF000002804D0012020700720FDF731FD207837
:103C00008121084205D00220FDF72AFD0120207005
:103C100011E0002020700020C046002807D0DFF807
:103C20002C07017841F02001017000F01EF9DFF847
:103C30002007FEF734FB00252E4605E0FCF774FA5A
:103C4000FDF74AFC00252E4601F036FC0746FF280A
:103C500000F0E4804FF0000818282AD0212834D042
:103C60003F282AD07E282CD0802822D0842830D00B
:103C7000852832D0902837D0912839D092283BD04F
:103C800093283DD094283FD0952841D0962843D002
:103C9000972845D0992847D09A2849D09B284BD0BF
:103CA0009C284DD09D284FD09E2851D0A02853D07D
:103CB00056E0BDE8F041FFF746BF0120FEF7C5FC26
:103CC00050E00220FEF7C1FC4CE00820FEF7BDFCEE
:103CD00048E02020FEF7B9FC44E02078800641D57A
:103CE0004020FEF7B2FC3DE00120FEF7C0FC39E0C9
:103CF0000220FEF7BCFC35E00420FEF7B8FC31E002
:103D00000820FEF7B4FC2DE01020FEF7B0FC29E0FF
:103D10002020FEF7ACFC25E04020FEF7A8FC21E0C7
:103D20008020FEF7A4FC1DE00120FEF7A5FC19E0B1
:103D30000220FEF7A1FC15E00420FEF79DFC11E037
:103D40000820FEF799FC0DE01020FEF795FC09E035
:103D50002020FEF791FC05E04020FEF78DFC01E0FD
:103D60004FF00108B8F1000F3FF46CAF0A2F01D0FB
:103D70000D2F26D100F079F86078002856D1DFF8B1
:103D8000D0050021F6B28155E90703D50B20FDF7D8
:103D9000A3FB57E701780A0003D10020FDF79CFB45
:103DA00050E7242904D1FEF799FAFDF795FB49E77E
:103DB0002178212211423FF441AF0920FDF78CFB0D
:103DC00040E7002D09D0292F7FF43EAF2846800719
:103DD0007FF53AAF05F0FD0536E7212FFFF634AF4A
:103DE0002F2F3FF431AF282F01D102252CE73B2F95
:103DF00001D1042528E7F6B231464F2901DB012520
:103E000022E7761CDFF84805A7F161021A2A03D2DF
:103E1000A7F12002425417E7475415E700F01AF8BB
:103E200000F023F8607800283FF40EAFBDE8F08181
:103E300010B500F00FF8DFF80C4500F016F86078C8
:103E4000002806D101F06DFD0028F6D12078082861
:103E5000F3D010BD80B501F064FD002804D002202D
:103E6000BDE80240FEF7F1BB01BD80B500F009F8E6
:103E7000DFF8D0048078002802D0BDE801409FE13F
:103E800001BD70B5DFF8CC040578DFF8B844002D2B
:103E900015D0012020702846FDF79AFB012D01D096
:103EA000022D0AD10120FDF7DBFB1020FEF7D2FB2B
:103EB000DFF898040078C006FAD5FEF7D4FBDFF8E7
:103EC0008C040578002D00F0E0802846C00602D55D
:103ED0000120607070BD2846C00704D5FDF7F8FDCD
:103EE0000120FEF7B7FB15F0E80058D02078032139
:103EF000084245D12821084211D0A078C0210842AB
:103F00000DD100F0A2FC022020712078202806D1DB
:103F10002846000603D4A07840F08000A0702078E6
:103F2000010001D10121A1702946490605D581066C
:103F300003D4A17841F04001A1702946090704D5B6
:103F4000E021084201D1102020702846800617D5B4
:103F50000620FDF785FBA07801060DD421784029C5
:103F600006D1020704D500F0E30040F00200A07083
:103F7000802901D040202070A07840F02000A0705F
:103F80002846000608D52078012803D1A07840F003
:103F90000500A07080202070E820FEF75BFB28461B
:103FA00080073BD515F0680035D1207840280CD12A
:103FB000A078810609D4C10602D50020207004E053
:103FC000410702D540F00800A0702078010004D01D
:103FD000C10620D5A178C9071DD5102806D1A07A21
:103FE000010003D040F00800A07214E0002020710E
:103FF00001F097FC00280BD0A078400608D40020E0
:10400000A0700820207000F03AFC00F0F1F902E006
:104010000020A07020700220FEF71CFB680734D53A
:104020002078D021084212D0E07800280FD1A07863
:1040300000060CD401F056FE2079810703D5A17843
:1040400041F00101A17000F0F90020711AE0A078A0
:10405000000609D50020207101F035FC00F080FB3E
:10406000FCF758F801F021FEA078810607D500F092
:104070007F0040F00100A0704020207002E000208E
:10408000A07020700420FEF7E5FAB3480578002DF3
:1040900039D0FEF7F6FAE07901462A46D20700D574
:1040A00064212A46920700D50A312A46520700D5D4
:1040B0000A392A46120700D5491C2A46D20600D5DD
:1040C000491EC9B2C82900DBC8210B2900DA0A2120
:1040D000227A13462E46B60600D564232E4676066F
:1040E00000D532232D0600D519230D46854202D175
:1040F0001846904207D0E17123720020E07201F06F
:1041000095FC01F0EFFD95480578002D4FD0FEF7A6
:10411000BCFA607A01462A46D20700D564212A46B5
:10412000920700D50A312A46520700D50A392A4695
:10413000120700D5491C2A46D20600D5491EC9B22D
:10414000C82900DBC8210B2900DA0A210A4682426D
:1041500006D0207940F00800207161720020E072E2
:10416000284680060DD5207810280AD1A07A0100B3
:1041700002D10220A07204E0C10702D540F0040081
:10418000A07215F0C00012D02078010002D01821D2
:1041900008420CD0724D287A410602D500F0BF06C5
:1041A00001E040F040063046FFF746FA2E722078D4
:1041B000FC21084203D0BDE8704000F060BB70BD38
:1041C00070B501F0AEFB002805D1654E707A317AEA
:1041D00041EA00040EE0447C0CE02879000707D592
:1041E00004F03000FFF7E1F9287900F0F7002871BA
:1041F000FFF747FE534DA878010000F0A2806978D0
:10420000002940F09E80C107F2D52978C0221142D2
:1042100062D040070DD40020A872FFF7C6F9002035
:10422000FFF70AFAA87800F0FD0040F00400A8703B
:10423000DEE7802911D10B20FDF712FA0020FFF7ED
:10424000B4F90020FFF7F8F900F0F5F801E0FFF706
:1042500018FE68780028FAD070BD402907D10020E8
:10426000C046002803D1A87800F0DF00A870A87825
:104270000107BDD53A4E717A002914D0800712D4B7
:10428000314890F84800800704D5287940F00800AC
:10429000287108E004F03000FFF787F901214FF0A2
:1042A0008040FEF7C0FA307A00280BD0A87880074B
:1042B00008D404F04000FFF7BFF901214FF07E5011
:1042C000FEF7B1FAA878810792D440F01000A870E8
:1042D0000220FEF7BAF98BE7A87A01003FF47DAF20
:1042E00081070CD51E48407A002805D00020FFF732
:1042F0005CF90120A8727BE70020A87278E70C2106
:1043000008423FF475AF1648407A002810D00A20C2
:10431000FDF7A6F90C4890F84800800704D52879E5
:1043200040F00800287103E004F03000FFF73DF989
:10433000A87A000702D50220FEF787F90020A872AC
:1043400056E770BDEC1D00207C1C0020FD1D0020E8
:10435000D81C0020FE1D0020FF1D0020001E002094
:10436000281D002002F080B802F093B8F8B504468A
:104370000D4616460027002E09E0012029780F1867
:10438000FFB22046FFF7F0FF6D1C641C761E07D0BD
:104390007800F2D1F811401E8041C043C00FEDE714
:1043A00039462046BDE8F440DEE7F8B504460D4640
:1043B00016460027002E05E001214718FFB204F839
:1043C000010B761E28460AD0FFF7CCFF6D1C790042
:1043D000F2D1F911491E8941C943C90FEDE7FFF731
:1043E000C1FF874201D10120F2BD0020F2BD0000D3
:1043F00010B5DFF8F84BDFF8F80B217E490704D53C
:104400000122082101F0CEFC03E00022082101F086
:10441000C9FCDFF8E00BDFF8E01BC9788173217875
:10442000891E01EBC102D100C91049424173BDE8A8
:10443000104002F0AEB810B502F0AFF80020DFF87F
:10444000B81B48710146DFF8B44B2078FF2809D12A
:10445000DFF8AC2B1278002A04D1DFF8A82B1278F1
:10446000802A07D1DFF89C2B1278042A02D0FEF7AD
:10447000FEF90121607D400701D581F00101DFF8DF
:10448000700B002905D001220821BDE8104001F081
:1044900089BC00220821BDE8104001F083BC70B542
:1044A000DFF8544B6079002840F01581DFF8586B35
:1044B000DFF8405BE87B400900F00102082130464C
:1044C00001F070FCE87B800900F001021021304609
:1044D00001F068FCE87BC2092021304601F062FC53
:1044E000A87B800800F001020121304601F05AFC4F
:1044F000A87BC00800F001020221304601F052FC06
:10450000A87B000900F001020421304601F04AFCBA
:10451000A87B800800F00100E178890801F0010122
:1045200088420AD0E87B800603D5012002F09EF87D
:1045300003E04FF0FF3002F099F8A87BC00800F0CC
:104540000100E178C90801F0010188420AD0E87B46
:10455000400603D5012002F011F903E04FF0FF30CF
:1045600002F00CF9697B012002F03EF802F034F809
:1045700001206071686A002838D16078217888420B
:1045800053D0DFF8880A217801EB410200EB4200AA
:1045900068624188012002F004F8686A0188A983F2
:1045A0000179AA7F0B469A420BD0A97701EB8102D1
:1045B00004EB820110312962C9684908A960696069
:1045C0002960296A0A7C23795A40EA73096840798C
:1045D000C1402961286A4068696A4979C8406861B0
:1045E000286A8068696A4979C840A861DFF8200AAA
:1045F0000078012801D100F046FD0020A87328684A
:1046000029690A182A60286ADFF8081AC3689342E1
:1046100014D20423AB73C368D21A2A600A68037CDD
:104620009B0609D5521E0A6008E0FFF704FF04202C
:10463000BDE87040FEF709B8521C0A606A686B69F1
:104640009A186A60C36893420FD2AB7B43F00803A9
:10465000AB73C368D21A6A604A68037C5B0602D5F2
:10466000521E4A6001E0521C4A60AA68AB699A185F
:10467000AA60C36893420FD2AB7B43F01003AB73C5
:10468000C368D21AAA608A68007C000602D5501E50
:10469000886001E0501C8860DFF86809017804290F
:1046A00003D1A97B80790840A873A88B401EA883FA
:1046B00080B2002809D1002068622078401C207058
:1046C000C0B2062801D100202070A87BE1784840C4
:1046D000A8730020607170BD38B5DFF82C49DFF891
:1046E0001859E878800800F001020121204601F005
:1046F00059FBE878C00800F001020221204601F0D1
:1047000051FBE878000900F001020421204601F085
:1047100049FBBDE8314001F063BFF8B5DFF8D84888
:104720000020E07020710546DFF8EC7815E00120EC
:1047300000FA05F63878304205D02846FCF768FEC6
:10474000E1780843E0707878304205D02846FCF7DD
:1047500069FE2179084320716D1C032DE7DBF1BD53
:1047600038B5FFF768FE00223021DFF8B008FCF70B
:10477000FBFBDFF88048002228212046FCF7F4FBF1
:1047800000206062DFF87058A8602870687001200F
:10479000A87000206871FFF7C0FF2879E073DFF888
:1047A0006848E878800800F001020121204601F005
:1047B000F9FAE878C00800F001020221204601F071
:1047C000F1FAE878000900F001020421204601F026
:1047D000E9FA2879400900F001020821204601F099
:1047E000E1FA2879800900F001021021204601F049
:1047F000D9FA2879C20920212046BDE8384001F0C5
:10480000D1BA10B5DFF800480121204601F0B0FA16
:104810000221204601F0ACFA0421204601F0A8FA5A
:104820000821DFF8CC0701F0A3FA0821204601F0A7
:104830009FFA1021204601F09BFA2021204601F02A
:1048400097FABDE8104001F053BE38B5DFF8A8472D
:10485000A568002D0CD0DFF8C407417841F00101B4
:104860004170C1690846FEF787F968610020A060C1
:1048700031BD401CC0B2052800D1002070472DE991
:10488000F04F89B0DFF87C070079C007DFF88C476C
:1048900006D59EE30846DFF86017886001F026F829
:1048A000DFF854070078DFF850178978884200F065
:1048B0009083DFF844078068002840F05D81DFF8CE
:1048C00044070079400705D501F021F8DFF82817E3
:1048D000886004E001F025F8DFF81C1788600846BE
:1048E0008568002D00F075836078C00702D5002030
:1048F000607045E02078FFF7BCFF2070DFF8F81605
:1049000000EB800201EB82001030C860297C01744A
:10491000002105E055F82120D20040F82120491C53
:104920000329F7DBE968C900C160E868FEF7A0F871
:10493000A060296A00F0A6FE0146E160DFF8E0060B
:1049400000F0A0FE206100206060DFF8B80600796A
:10495000800702D4607800070AD5616AE1610846E1
:10496000FEF70AF96861607800F0F700607007E010
:104970006869FEF717F8FEF70DFCFEF781FAE061B3
:104980000020A0614FF07C50E96900F07BFE0746F3
:10499000DFF870060079810728D5022020756E693E
:1049A000D5F8208038463146FEF7E6F80146404605
:1049B000FEF76EF80021FEF77FF913D2E9694FF098
:1049C0008040FEF7D9F84146FEF7D6F8014630465A
:1049D000FEF75EF8FDF7E6FFFEF7DCFBFEF750FAA8
:1049E0006062C9E0A06108466062C5E000212175EF
:1049F000296AA162400703D500252846606209E0C4
:104A000000F09FFF0546FDF7CDFFFEF7C3FBFEF765
:104A100037FA6062DFF8E005806800F0AFFF80469B
:104A20004146FEF7A9F88146DFF8CC05D0F808A08A
:104A3000DAF820B0DAF814002946FEF729F83946EA
:104A4000FEF79AF85946FEF763FA4FF07C51FEF7ED
:104A500093F806464846DAF81410FEF72DF936D2D8
:104A6000FEF716F83946FEF787F85946FEF750FA72
:104A7000A0620021FEF720F91CD802202075DAF888
:104A80001C104FF08040FEF777F8DAF82010FEF7A0
:104A900073F80146DAF81400FDF7FAFFFDF782FF1C
:104AA000FEF778FBFEF7ECF96062607840F00800F2
:104AB000607061E048462946FDF7EAFF3946FEF797
:104AC0005BF8E062C4F820800320207554E0304693
:104AD0000021FEF7DFF84BD25946FEF7EDF844D23D
:104AE00048462946FDF7D4FF3946FEF745F8E0620F
:104AF0003146FEF7E1F815D2C4F82080DAF8142028
:104B000010464946FEF746FA02D10120207533E0EF
:104B1000FDF7BEFF3946FEF72FF8A16AFEF7F8F958
:104B2000A06229E0A662E662DAF81C00FDF73AFF0F
:104B300000224FF08043FEF7D1F880468946304688
:104B4000FDF730FF42464B46FEF7C8F806460F46D3
:104B50002846FDF727FF32463B4601F07BFAFEF779
:104B600019FBFEF78DF9206206E00220207503E0B4
:104B70000846A062606A2062DFF89004DFF87814CB
:104B8000497801EB410200EB42000690207806993B
:104B90000871DFF89054AB464FF0000ADFF8580474
:104BA0008068066A30462169FDF772FF079051461A
:104BB000FEF782F801D208460790207D00286CD0CD
:104BC000012800F0D0800328DFF82C048068C06939
:104BD000294640F0E580FDF7CFFF8146E769D4F82C
:104BE000208038464146FDF753FF01464846FEF710
:104BF00051F824D8A66ADFF800048068006A3146BC
:104C0000FDF746FFFDF7CEFE00224FF08043FEF792
:104C100065F8CDE9000138464146FEF779F9FDF720
:104C2000C1FE02460B46DDE90001FEF72BFBFEF755
:104C300027F9054601202075C4F81C800CE1304698
:104C4000FDF7B0FECDE904012846FDF7ABFECDE946
:104C500002014846FDF7A6FE0022DFF8CC33FEF73E
:104C60003DF8CDE900013846FDF79CFE02460B46B3
:104C7000DDE90001FEF7CEF9DDE90223FEF72EF8AB
:104C8000DDE9042301F0E6F9FEF7FAF806463846B6
:104C90004946FDF7FDFEE061DEE0D7488068C06967
:104CA0002946FDF769FF8146E7693046FDF77AFE40
:104CB000CDE904012846FDF775FECDE9020138462D
:104CC000FDF770FECDE900014846FDF76BFE0022BE
:104CD000D54BFEF703F8DDE9002301F0BBF9DDE970
:104CE0000223FDF7FBFF02460B46DDE90401FEF758
:104CF00091F9FEF7C5F80646A16AFDF7DDFF2CD253
:104D00000E46D4F82080BC488068006AFDF7C0FEDB
:104D1000FDF748FE00224FF08043FDF7DFFFCDE9AD
:104D2000000138464146FEF7F3F8FDF73BFE024628
:104D30000B46DDE90001FEF7A5FAFEF7A1F80546EE
:104D40003046E16AFEF726F902D10220207501E023
:104D500001202075C4F81C807EE038464946FEF7E5
:104D6000D7F8E06178E0D4F8208040462946FDF786
:104D700003FF01463046FDF78BFE0246E76A3946DF
:104D8000FDF79AFF0AD23046FDF782FE414600F059
:104D900079FC05463E46022020755DE016465BE044
:104DA000FDF7EAFE8146E7693946FDF785FF32D215
:104DB0003046FDF7F7FDCDE904012846FDF7F2FD89
:104DC000CDE902014846FDF7EDFD0022964BFDF7C7
:104DD00085FFCDE900013846FDF7E4FD02460B46AC
:104DE000DDE90001FEF716F9DDE90223FDF776FFA4
:104DF000DDE9042301F02EF9FEF742F80246A0692E
:104E00001146FDF759FF06D2164638464946FDF7CA
:104E10003FFEE06120E0D4F824803046A169FDF730
:104E200037FEFDF7BFFD00224FF08043FDF756FF30
:104E3000CDE9000138464146FEF76AF8FDF7B2FDBC
:104E400002460B46DDE90001FEF71CFAFEF718F8F2
:104E50000546A669C4F81C8050462946FEF758F856
:104E600082465946FDF728FF05D258465146FDF7C0
:104E70000FFE054612E007983146FDF71DFF13D2DD
:104E80005846FDF78FFD694A694B01F0E3F8FDF7DD
:104E9000F7FF83465146FDF7FBFD0546A069314605
:104EA000FDF70AFFFFF489AEE068FDF765FE0746EF
:104EB000FDF778FD01F014F8FDF7E2FF0546A06864
:104EC000FDF770FD01F00CF8FDF7DAFF804629468A
:104ED000FDF7DEFD00F0E2FF0699088080B20028B1
:104EE00003D14848007980076DD460685146FEF7C9
:104EF0000FF8814640463946FDF7CAFD014648464F
:104F000000F0C0FB8046FDF74DFD4FF00042494BDD
:104F1000FDF7E4FE00F0E4FFFDF78AFD42F22831E0
:104F2000884203D20021069A51711CE044F250617C
:104F3000884203D20121069A51710AE048F6A04145
:104F4000884203D20221069A517102E00321069A97
:104F5000517106994979C84006990988069A52798B
:104F60009140069A1180B0F5803F02D206994880A0
:104F700003E04FF6FF70069948801F4880781E496D
:104F80004870401C8870C0B2062801D1002088708B
:104F9000084680680662A56028463946FDF778FD18
:104FA0004146FDF7E9FD60603046A169FDF7F2FF7B
:104FB0007FF476AC0021FDF76DFE04D31148007933
:104FC00040077FF567AC0F48007940F001000D49BC
:104FD000087109B0BDE8F08F0A4800787C210842CA
:104FE00002D00E48C069704700207047AC1C0020FA
:104FF000000801404C1E0020081C0020AF1C0020AF
:10500000FE1D0020EC1D0020000C01409C1E002015
:10501000FC1D0020041E0020AD1C00201C1E0020D2
:105020000000A03F3EC32E390000E03FA5E2ECC3E4
:1050300067D8253FDF17F04110B51C4C10212046E2
:1050400000F0A3FE01221021204600F0ABFE00205C
:10505000BDE81040164900220A70164A92F848200E
:10506000120601D401220A70002803D0087880F0CB
:105070000100087070471048006800F010000C49EB
:1050800009784840704780B5FFF7F5FF00280CD03D
:1050900000200A4908700C2209490A48FDF71CFB48
:1050A0000948017841F04001017001BD000801404C
:1050B0003C1F00207C1C002008080140FC1D002033
:1050C000041E0020101E0020FD1D002010B5DFF87A
:1050D000A4434FF48061204600F057FE4FF4005186
:1050E000204600F052FE4FF48041204600F04DFE75
:1050F00001224FF48061204600F054FE01224FF45B
:105100000051204600F04EFE01224FF4804120461F
:1051100000F048FEDFF8600390F8480000071BD558
:105120000C234FF480620A21002000F041FE0C2382
:105130004FF400520D21002000F03AFE0C234FF4F2
:1051400080420E21002000F033FE0022114628206C
:10515000BDE8104000F047BEBDE8104000221146F7
:10516000282000F04EBEF8B50024C448016801684C
:1051700000682546C04890F84800400600D40E2537
:10518000002D0ED026462F4609E03046FCF754F994
:10519000074203D00120B0400443E4B2761C032E42
:1051A000F3DB2046F2BD80B54FF4C84000F06DFE41
:1051B000B348007801280AD0B2480078002806D108
:1051C000FEF7C1FC0120BDE80240FDF749BA01BD70
:1051D0002DE9F14F8AB0AA484078002840F0278195
:1051E00000220C2107A8FBF7BFFE06208DF8240043
:1051F0004FF0030B4FF00008444627E02046FCF731
:1052000007F903A908559DF828000121A14008428B
:105210001BD0994D05EB8400456A4046FDF7C2FB63
:1052200002460B4616461F462846FDF7BBFB0022EA
:10523000954BFDF753FD32463B46FEF74FF904D33D
:1052400092482946FDF798FC8046641C032CD5DB68
:105250000126894D05F14C000290D0F804A08C493C
:1052600004A8FDF7C8F90027B9463C46884A0BE078
:10527000002E1DD0404680F0004004A941F82400D3
:1052800003A8005D0743641C032C15DA012000FA13
:1052900004F19DF828000842F5D009F10109002029
:1052A00042F8240095F849000842E1D1002EE1D0EF
:1052B00004A840F82480E3E75046FDF773FBCDE9EE
:1052C00000015FFA89F9484601F0B8FAFDF762FF7C
:1052D000DDE90023FDF702FDFDF7D2FD82466848B7
:1052E0008771CDF81CA007A904A800F0BFFB04201B
:1052F00063490871FFF7C3FAFFF77AF8002E13D05D
:10530000FFF731FF00240BE003A9095D3A460A428A
:1053100005D002462241D20701D58F43FFB2641C5B
:10532000032CF1DB56488771FFF7A9FA5948017839
:10533000342211422BD004782046C00602D5062024
:10534000FDF78EF92046800602D50720FDF788F983
:10535000002E08D1FFF707FF9DF82810084202D061
:105360000820FDF77DF9002E04D0600702D5092042
:10537000FDF776F943480078002804D0FEF7E3FBF8
:10538000FEF773FD53E00420FDF764F902E017F027
:105390001C00B3D1FFF7E4F902980089FDF767FA22
:1053A00096F001060298C76808D03B483946FDF7D9
:1053B000E3FB80460298D0F800A002E0B846D0F89F
:1053C00004A05846A0F1010BC0B200287FF447AFFB
:1053D00000240DE038463146FDF7CEFB80F000405A
:1053E000FDF7E0FA01F038FA294941F82400641C7D
:1053F000032C19DA0120A0409DF828100142F6D0B4
:1054000055F8246095F849100142E3D005EB84007B
:10541000406A3946FDF77CFD3146FDF7ADFBFDF7EF
:10542000C1FA01F019FADFE70020154908710BB045
:10543000BDE8F08F10B5FDF7EFF8002819D0104C3B
:105440000120E070207808280AD10820FDF7FDF837
:10545000FEF70BFD607800280BD120780028F7D1EB
:10546000FEF771FB0220FDF7FBF8BDE81040FEF7E8
:10547000FCBC10BD000801407C1C00200808014055
:10548000EC1D0020FE1D00200000F8BF0000C0BF82
:10549000041E0020FD1D00200000A04080B501F08A
:1054A00077FAC0B2802801DB002002BDC0F1800085
:1054B000C0B202BD01F07EBA01F057BA01F079BA6C
:1054C00010B5044603E014F8010BFFF7F3FF207852
:1054D0000028F8D110BD10B5044601E0FFF7EAFF3F
:1054E00014F8010B0100F9D110BD38B50024254690
:1054F000642809DB01460A2091FBF0F000EB8002F2
:10550000A1EB420101F13004C0B20A2809DB0146D7
:105510000A2091FBF0F000EB8002A1EB420101F1C7
:1055200030053030C0B2FFF7C5FF2846C0B20028B2
:1055300003D02846C0B2FFF7BDFF2046C0B2002806
:1055400005D02046C0B2BDE83240FFF7B3BF31BD41
:105550007FB506460C460021FDF7AEFB04D22D2098
:10556000FFF7A8FF86F00046254606E04048314692
:10557000FDF702FB0646AD1EEDB2022DF6DA002D58
:1055800004D03C483146FDF7F7FA064600254FF0B7
:105590007C503146FDF7BCFC00F080FC00280DE09B
:1055A0000A21B0FBF1F10A4602EB8203A0EB4300B3
:1055B00030306A46EDB250556D1C0800F0D12846D7
:1055C0002146C0B2884205D230206946EDB2485526
:1055D0006D1CF4E715D130206946EDB248556D1CBD
:1055E0000FE028462146C0B2884202D12E20FFF7A4
:1055F00061FF6846EDB2284410F8010CFFF75AFF2E
:105600006D1E2846C0B20028EBD17FBD10B51A49E7
:1056100091F84810C9070DD504210C46FDF7C2F9D1
:10562000164A174BFDF75AFBFDF72AFC2146BDE849
:1056300010408DE70321BDE8104089E710B50E4901
:1056400091F84810C9070DD501210C46FDF7AAF9BC
:105650000A4A0B4BFDF742FBFDF712FC2146BDE861
:10566000104075E70021BDE8104071E70000000020
:105670000000C842000020417C1C00206568E15702
:105680005128A43F10B5FF2313EAD0541DBF13EADD
:10569000D1529C429A4239E0A41ADA0780EA010307
:1056A000134042EA012142EA0020421A3CBF641E34
:1056B00001EB4202090AB2FBF1FE01FB1E221202BB
:1056C000B2FBF1F001FB10226EF30F201202B2FBCD
:1056D000F1FE4EEA00207F3406DDFE2C24DA53EA88
:1056E000500050EBC45010BDD4F1020401FB1E2247
:1056F00040F08071192C1DDC21FA04F0C4F1200463
:10570000A140114371F10042584110BD9C421ABFA3
:1057100003EAD1529A420FE080EA010E0EF00043F4
:10572000400004D0490016D143F0FF4010BD4900AD
:1057300008BFD343180010BD9C4205D1D21AF7D040
:1057400001F00041484010BD4A0212BF08464840DF
:1057500000F0004010BD4AB90902B1FA81F291404F
:1057600044B1A418C00140F000409EE7C90141F0D7
:10577000004152420002B0FA80F4A040141B94E7AA
:10578000401CC0B2102800D100207047010000D199
:105790001020401EC0B270472DE9F84FDFF8584581
:1057A0006078FFF7F3FF804694F8039049468842FB
:1057B00000F087803025DFF8446505FB08F03718D6
:1057C000F9694FF08040FDF7D7F9396AFDF7D4F950
:1057D0000146B869FDF770FA00D20146796140468A
:1057E000FFF7D4FF804648450ED12078804501D18F
:1057F000FFF72BF8E07805FB00F106EB0109FFF756
:10580000BFFF804659E078614046E1788842F1D098
:10581000B94605FB08F037184046FFF7B7FF80464A
:105820002178884201D1FFF710F8D7F818A07869DD
:105830005146FDF7AFFBE7D0F8694FF08041FDF727
:105840009BF9396AFDF798F9D9F81410FDF760FB58
:105850005146FDF731FAD6D3C7F814A0D4E74F4626
:1058600005FB08F006EB0009D9F814A0D7F814B02E
:1058700058465146FDF720FA12D2F8694FF08041A0
:10588000FDF77AF9396AFDF777F95946FDF740FBDC
:105890005146FDF711FA03D2C9F8140084F80380C9
:1058A000D9F81400D9F81810FDF774FB01D184F869
:1058B00003804046FFF764FF804640466178884297
:1058C000CDD1BDE8F18F80B500221C21DFF8300476
:1058D00001F0F4F8BDE80140DFF81C04002101707C
:1058E0004170012181700021C170704738B5DFF827
:1058F0000844257860782946884207D02846FFF773
:105900003FFFE1788D4200D1E070207031BDDFF8BB
:10591000EC03DFF8E413497801EB410200EB0210DD
:105920007047DFF8D403017840780A46904201D1ED
:1059300000207047DFF8C40301EB410200EB0210C6
:10594000704710B5DFF8B0432078FFF719FF617892
:10595000884201D1002010BDDFF8A01300EB400207
:1059600001EB0210406910BDDFF88C0301788078EC
:10597000814201D1012070470020704770B5064672
:10598000F26A707CC10717D51046FDF70BF8044684
:105990000D46DFF87003007A00F050FFDFF868234F
:1059A000DFF86833FDF79AF922462B46FDF796F9A2
:1059B000FDF766FA02461BE0400713D41046FCF7D9
:1059C000F1FF04460D46CF48C07900F037FFCE4ABC
:1059D000CE4BFDF783F922462B46FDF77FF9FDF705
:1059E0004FFA0246B06A1146FDF766F900D2024648
:1059F0001046C749FDF74EF901D94FF07E5070BDF2
:105A000010B504461046FDF757F904D20146FDF7DC
:105A1000B3F8A06103E00846FDF7AEF8A061606A44
:105A2000A169FDF749F900D2A06110BD2DE9F0414F
:105A3000B14C2678B74D12E0B04806EB460110EBAA
:105A400001173846FFF79AFF80462A4641463846F6
:105A5000FFF7D6FF45463046FFF792FE0646304632
:105A600061788842E8D1E561BDE8F0812DE9F04F29
:105A70008DB007468846A04CA048617801EB4102F2
:105A800010EB0215002230212846FBF76DFA98F83A
:105A900008006874800705D50C229F4906A8FCF70A
:105AA0001BFE04E00C22211D06A8FCF715FE4FF09A
:105AB00000099A4E17E00846E8605046FCF7CEFF12
:105AC00056F82910FFF7DEFD694641F8290000214C
:105AD000FDF7F2F805D24846FBF7A4FC297C084301
